:100000000C9434000C9451000C9451000C94510049
:100010000C9451000C9451000C9451000C9451001C
:100020000C9451000C9451000C9451000C9451000C
:100030000C9451000C9451000C943A040C9451000F
:100040000C9451000C9451000C9451000C945100EC
:100050000C9451000C9451000C9451000C945100DC
:100060000C9451000C94510011241FBECFEFD8E026
:10007000DEBFCDBF11E0A0E0B1E0E8E6FDE002C0E8
:1000800005900D92A23EB107D9F722E0A2EEB1E0B1
:1000900001C01D92AC32B207E1F70E947B030C94C1
:1000A000B2060C940000449840E050E0682F70E0E5
:1000B0004598439898B19B01042E02C03595279529
:1000C0000A94E2F721703327220F331F220F331FC8
:1000D000220F331F292B28B9459A4F5F5F4F4830B5
:1000E000510531F7449A0895CF93DF93EC01E5EE83
:1000F000F1E02AE030E0B9010E947C05DC01AE5D50
:10010000BE4F8C918083CB01B9010E947C05DC013C
:10011000AE5DBE4F8C918183CE0164E670E00E949B
:100120007C05CB01B9010E947C05DC01AE5DBE4FB0
:100130008C918E7F8283CE0168EE73E00E947C05F5
:10014000CB01B9010E947C05DC01AE5DBE4F8C91F4
:100150008383DF91CF9108958AB1806F8AB98BB183
:100160008F708BB987B1886387B9449A80E090E03B
:100170000E9474000895CF93DF93A5EEB1E09DEC4B
:10018000899FE12D1124E695E695E6953E2F330FE4
:10019000232F220F220F230F821BC82FD0E0CE5D0A
:1001A000DE4F88818C93E99F812D11248695869559
:1001B0008695880F282F220F220F820FE81BF0E070
:1001C000EE5DFE4F808111968C931197699FE12D12
:1001D0001124E695E695E6952E2F220F822F880FA3
:1001E000880F820F681BC62FD0E0CE5DDE4F88815E
:1001F0008E7F12968C931297E99F912D11249695DC
:1002000096959695990F892F880F880F980FE91B5F
:10021000F0E0EE5DFE4F808113968C93DF91CF91DD
:1002200008958AB18F608AB98BB18F608BB984B120
:10023000837C84B985B18C6385B908951A9B08C005
:100240001B9B08C01C9B08C01D9B08C080E0089534
:1002500081E0089582E0089583E0089584E00895A0
:100260000F931F93CF93DF93C0E0D0E008E010E03E
:100270008BB18F608BB99BB198010C2E02C0359564
:1002800027950A94E2F7822F809589238BB985E020
:100290008A95F1F700000E941E01882339F00E9420
:1002A0001E018F5BCC0FCC0F8C0F05C02196C43084
:1002B000D105F1F681E4DF91CF911F910F9108955F
:1002C000CF92DF92EF92FF920F931F93CF93DF9322
:1002D0006AEF71E020E030E0E901C751DE4FA9018B
:1002E0004C5F5F4FDB01C90133230CF401968E7F15
:1002F000FC01E15CFE4F808191818D939D93199269
:100300002F5F3F4F2417350771F7685F7F4F9A01C2
:100310004031510509F784E08093F90180931A0276
:1003200080911D0290911E020E945F06C4E6D0E0FB
:100330000E9411067C010E9411066C010E941106A8
:100340008C010E941106A60143705078552334F4A5
:10035000415051094C6F5F6F4F5F5F4F55279701B9
:1003600023703078332334F4215031092C6F3F6FE0
:100370002F5F3F4F3327FA01EE0FFF1FEE0FFF1FD6
:10038000E20FF31FEE0FFF1FE650FE4F60817181F9
:1003900083709078992324F401978C6F9F6F019656
:1003A000FC01FF2703701078112334F40150110968
:1003B0000C6F1F6F0F5F1F4FEE0FFF1FEE0FFF1F22
:1003C000E00FF11DEE0FFF1FE650FE4F808191817F
:1003D000DA01AA0FBB1FAA0FBB1FA20FB31FAA0FE0
:1003E000BB1FA650BE4F8D939C9371836083219752
:1003F00009F09ECFDF91CF911F910F91FF90EF9069
:10040000DF90CF9008950E94600181E08093E40125
:100410008093B5018093B7018093B6010E942804B0
:1004200008951092E40110921C021092240210927E
:10043000230210922602109225021092B801109207
:1004400089001092880081E08093B6010895CF93CF
:10045000DF93EC01A5EEB1E021EE31E09FEFE991F1
:100460008FEB8E0F8A3140F4F0E0E953FF4F80812B
:1004700013968C93139703C013969C93139711971D
:10048000A217B30761F7DF91CF910895CF92DF9262
:10049000EF92FF920F931F93CF93DF9390E08254DC
:1004A0009109FC010AF43396F595E795F595E795E2
:1004B0003E2FE0931A0283709078992324F40197D9
:1004C0008C6F9F6F0196482F8093F901FF27992722
:1004D000DF01AA0FBB1FAA0FBB1FA751BE4FA80F5A
:1004E000B91F2C91213009F4C5C020911B02321391
:1004F00005C020912C01421709F4BCC0EE0FFF1F6C
:10050000EE0FFF1F8E0F9F1FFC01EE0FFF1FE65027
:10051000FE4F808191810E942702C0912C01C5303D
:1005200069F48091F90180932C0180911A028093E3
:100530001B021092B7010E9428049CC090911A02DD
:100540000091F90110E080911B02D0E0E92EF12C1E
:10055000F80124E0929FE00DF11D1124EE0FFF1F22
:10056000E650FE4F60817181C82ED12CFE0194E0CF
:10057000899FE00DF11D1124EE0FFF1FE650FE4F85
:10058000808191810E946806892B09F05AC0C601BA
:10059000880F991F880F991F87519E4FC80FD91F29
:1005A00021E02883C701880F991F880F991F875161
:1005B0009E4FFC01E00FF11F20830E94C703E9EE6C
:1005C000F1E091E030E001C0982FDF0180818130BF
:1005D00009F448C01092F90130931A020BC0139627
:1005E0008C918130B1F083E001C082E08093F90109
:1005F00030931A0281E08093B60124EF31E030930A
:100600002802209327028093B70185E080932C0174
:1006100031C081E0890F3496392F8530A9F684E006
:100620008093F90190931A0282E08093E401609133
:10063000290280912A020E94BB0081E080931C0263
:1006400002C00E94F30381E08093B60124EF31E001
:1006500030932802209327028093B70185E080938E
:100660002C0108C02181213009F68281813009F4F2
:10067000B6CFBBCFDF91CF911F910F91FF90EF903D
:10068000DF90CF900895CF93DF938091E4018111A3
:1006900019C01092B601C091E201D091E301CE01E0
:1006A000835D9E4F0E9427022196CD30D1052CF408
:1006B000D093E301C093E2011BC01092E3011092BA
:1006C000E20116C08130A1F41092E3011092E20120
:1006D0008091B701882361F08091270290912802D0
:1006E000892B31F46091290280912A020E94BB007B
:1006F000DF91CF9108950E945E050E946C050E94D3
:10070000AC000E9411017894C0E0D1E08091B60164
:10071000882321F01092B6010E944303CC2341F1BB
:100720000E943001813461F18FE193E00197F1F78C
:1007300000C000000E943001813411F18091E40179
:10074000811106C00E9430010E940302C0E018C05F
:10075000813031F40E9430010E944602C0E010C096
:10076000823069F40E9430010E941102C0E008C08A
:100770000E943001CD2F813419F0C0E001C0C0E0EB
:100780008FE39CE90197F1F700C00000BFCFE8E8D4
:10079000F0E087EA96E0918380832FEF81EE94E08A
:1007A000215080409040E1F700C0000084EF93E0CA
:1007B000918380832FEF81EE94E021508040904020
:1007C000E1F700C000008DE792E0918380832FEF76
:1007D00081EE94E0215080409040E1F700C000009D
:1007E000118210820895E8E8F0E02AEF31E03183C9
:1007F00020834FEF51EE64E0415050406040E1F7FC
:1008000000C000008BEB93E0918380834FEF51EEAB
:1008100064E0415050406040E1F700C00000318387
:1008200020832FEF31EE44E0215030404040E1F78B
:1008300000C00000918380835FEF61EE84E051503F
:1008400060408040E1F700C00000118210820895EE
:10085000E8E8F0E084EF91E0918380832FEF81EE70
:1008600094E0215080409040E1F700C000001182E8
:10087000108208951F920F920FB60F9211242F939A
:100880003F934F935F936F937F938F939F93AF9318
:10089000BF93EF93FF938091B501882361F010928D
:1008A000B50110921E0210921D0210922A0210929F
:1008B0002902109222028091270290912802892B0E
:1008C00049F0809127029091280201979093280285
:1008D0008093270280911C02882309F487C08091AD
:1008E000250290912602892B09F073C08091B801EE
:1008F000882309F455C01092B801E0912302F091C9
:100900002402EE0FFF1FEF57FE4F80819181892B4C
:10091000C9F0E0912302F0912402EE0FFF1FEF5780
:10092000FE4F20813181032E000C440B550B60E4F7
:1009300072E48FE090E00E9490053093890020934C
:10094000880004C01092890010928800E091230270
:10095000F0912402EE0FFF1FE15BFE4F8081918139
:100960009093200280931F02809123029091240291
:1009700001969093240280932302E0912302F09148
:100980002402EE0FFF1FEF57FE4F808191818033CD
:100990009F4231F410921C0210928900109288003C
:1009A00080911F02909120020197909320028093E2
:1009B0001F0280911F0290912002892BB9F481E0DF
:1009C0008093B8018AE090E09093260280932502FC
:1009D0000DC010928900109288008091250290919C
:1009E00026020197909326028093250280911D0292
:1009F00090911E02019690931E0280931D02809199
:100A00001D0290911E02883E934044F110921E02F6
:100A100010921D0280912A028F5F80932A0280919A
:100A20002A028C33C0F010922A02809129028F5F33
:100A300080932902809129028C3368F01092290258
:100A4000809122028F5F80932202809122028C305B
:100A500010F01092220281E08093B6018091210271
:100A60008F5F8093210280912102843010F01092D8
:100A700021028BB18F708BB9E0912102F0E0EB5134
:100A8000FE4F80810E945300E09121029BB1F0E073
:100A9000EC5FFE4F8081892B8BB9FF91EF91BF9165
:100AA000AF919F918F917F916F915F914F913F9106
:100AB0002F910F900FBE0F901F90189584B58260F4
:100AC00084BD85B5836085BD89EF87BDEEE6F0E026
:100AD0008081826080830895219AE0E8F0E080813F
:100AE00080648083E1E8F0E080818A6080831092F6
:100AF000890010928800089597FB072E16F4009441
:100B000007D077FD09D00E94B20507FC05D03EF45E
:100B1000909581959F4F0895709561957F4F0895A9
:100B2000A1E21A2EAA1BBB1BFD010DC0AA1FBB1FF1
:100B3000EE1FFF1FA217B307E407F50720F0A21B63
:100B4000B30BE40BF50B661F771F881F991F1A94D0
:100B500069F760957095809590959B01AC01BD01FA
:100B6000CF010895AA1BBB1B51E107C0AA1FBB1FE1
:100B7000A617B70710F0A61BB70B881F991F5A9529
:100B8000A9F780959095BC01CD0108958F929F9211
:100B9000AF92BF92CF92DF92EF92FF92CF93DF930B
:100BA000EC01688179818A819B81611571058105DC
:100BB000910521F464E279ED8BE597E02DE133EFC7
:100BC00041E050E00E94710649015A019B01AC01CD
:100BD000A7EAB1E40E9490066B017C01ACEEB4EF91
:100BE000A50194010E949E06DC01CB018C0D9D1D88
:100BF000AE1DBF1DB7FF03C00197A109B048888390
:100C00009983AA83BB83BC01CD019F77DF91CF91EC
:100C1000FF90EF90DF90CF90BF90AF909F908F901C
:100C200008958F929F92AF92BF92CF92DF92EF92F0
:100C3000FF926091000170910101809102019091F9
:100C40000301611571058105910521F464E279EDD7
:100C50008BE597E02DE133EF41E050E00E94710613
:100C600049015A019B01AC01A7EAB1E40E94900638
:100C70006B017C01ACEEB4EFA50194010E949E06CD
:100C8000DC01CB018C0D9D1DAE1DBF1DB7FF03C048
:100C90000197A109B0488093000190930101A093AE
:100CA0000201B0930301BC01CD019F77FF90EF904B
:100CB000DF90CF90BF90AF909F908F9008956093FA
:100CC0000001709301018093020190930301089544
:100CD000FB01DC018D91019080190110D9F3990B72
:100CE0000895052E97FB1EF400940E94880657FD78
:100CF00007D00E94900507FC03D04EF40C948806A0
:100D000050954095309521953F4F4F4F5F4F089537
:100D100090958095709561957F4F8F4F9F4F089567
:100D20000E94A306A59F900DB49F900DA49F800DD7
:100D3000911D11240895B7FF0C9490060E9490060F
:100D4000821B930B0895A29FB001B39FC001A39F84
:100D5000700D811D1124911DB29F700D811D1124F4
:080D6000911D0895F894FFCFE6
:100D6800010000008040201011C163856171099164
:100D7800B587FEE355D5C53119F549E1C781A99372
:100D8800896D039F250D9949411F010905202020E0
:100D980020504149522047414D452020202000B98C
:100DA80001BE01C301C801CD01D201D701DC01AAEE
:100DB800025501550155015501AA02AA02550155CE
:100DC8000155015501AA021C02AA005501550155F9
:100DD800015501AA02AA025501550155015501AA5A
:100DE80002100393029302100393020B024B029327
:100DF800024B020B02930210030B0210030B0210AA
:100E0800030B021003930210034B02BA0293024B26
:100E1800020B02302F01010101434F4C44004E499F
:100E28004E450053544F5000424F4F4B00434F4FD5
:100E38004C0042454152004D4154480046494E45F8
:020E48000000A8
:00000001FF
